:020000040000FA
:1000000083018A0100003829090000000000000077
:10001000003025078A001030240703188A0A82005E
:100020003F3406345B344F3466346D347D340734EA
:100030007F346F3477347C3439345E3479347134BE
:10004000BF348634DB34CF34E634ED34FD348734CA
:10005000FF34EF34F734FC34B934DE34F934F1349E
:100060000034B03422344E346D34D234DA34203497
:1000700039340F34723470340C3440348034523498
:100080003F3406345B344F3466346D347D3407348A
:100090007F346F3409340D34613441344334D33404
:1000A0009F3477347C3439345E34793471343D3460
:1000B000743430341E3475343834553454345C342C
:1000C0007334673433346D3478343E341C346A34DA
:1000D00076346E345B34393464340F34233408346A
:1000E00020345F347C3458345E347B3471346F3464
:1000F000743410340E3475341834553454345C343C
:100100007334673450346D3478343E341C346A347C
:1001100076346E345B34393430340F340134003487
:100120006334A901A8010310A70CA60C1030B0007D
:10013000031CA0282408A8070318A90A2508A90752
:100140000310A90CA80CA70CA60CB00B982808004B
:10015000AA01A9010310A80CA70CA60C1830B00026
:10016000031CB8282408A90725080318250FAA0787
:100170000310AA0CA90CA80CA70CA60CB00BB02855
:10018000080025082906A300A91FCB28A809A9094A
:10019000A80A0319A90AA51FD228A409A509A40A17
:1001A0000319A50AAB01AA0103101130B000A40D78
:1001B000A50DB0030319F028AA0DAB0D2808AA025B
:1001C000031CAB032908AB02AB1FEE282808AA07C3
:1001D0000318AB0A2908AB070310D7280314D72844
:1001E000A31F0800A409A509A40A0319A50A080069
:1001F00026082906A3008A110A12A91F0429A809A2
:10020000A909A80A0319A90AA61F0E29A409A50964
:10021000A609A40A0319A50A0319A60AAB01AA0193
:1002200003101930B000A40DA50DA60DB0030319DD
:100230002D29AA0DAB0D2808AA02031CAB0329081F
:10024000AB02AB1F2B292808AA070318AB0A290801
:10025000AB070310132903141329A31F0800A409D3
:10026000A509A609A40A0319A50A0319A60A0800E4
:100270006400C43095000930960000308E000030D4
:100280008F00313090000B3097005F30A00021309C
:1002900084008001840AA00B492983160317880172
:1002A000890183120313003085000030860000307E
:1002B000870000308800003089008316FF308500F9
:1002C000FF308600BA3087007F308800FC3089001C
:1002D00019309900203098008312903098000C1942
:1002E000A2150C1DA2110C1D73290C1164002018FD
:1002F0007B292014B501A014A01C80298316880135
:100300008312A01C8529831689018312A014A01CC6
:10031000B1293608A4000130A800221224082806BA
:10032000A3002808A402A31F9B2924082806A300D1
:10033000A31B9B292216221EA029A41B2212A2293C
:10034000A41B2216221AA529A729B60AAD29B6018F
:100350002019AC292015AD2920112019B029A01091
:10036000B229B601A018A015A01CA011A014A01CB1
:10037000D82989309F00831680309F000317FF30F3
:1003800088003F308900831203131A30A500A50BA3
:10039000C7299F149F18CA291E08B80083161E0873
:1003A0008312B700831680309F00031788018901EC
:1003B00083120313A014A01C0F2A3908A4003A08C2
:1003C000A500C830A800A901221225082906A3000B
:1003D0002808A4022908031C290FA502A31FF62937
:1003E00025082906A300A31BF6292216221EFB2995
:1003F000A51B2212FD29A51B2216221A002A042A57
:10040000B90A0319BA0A0B2AB901BA01201A0A2A31
:1004100020160B2A2012201A0E2AA010112AB90128
:10042000BA01A01C342AA01A332AA0163508A40049
:100430000330A800221224082806A3002808A402DA
:10044000A31F282A24082806A300A31B282A221653
:10045000221E2D2AA41B22122F2AA41B2216221A86
:10046000322A332AB50A352AA0123508A4000330EF
:10047000A800221224082806A3002808A402A31F0B
:10048000472A24082806A300A31B472A2216221E57
:100490004C2AA41B22124E2AA41B2216221A512ACD
:1004A000532AA010542AA014A0182017A01C20130F
:1004B000201BA017201FA013A01C5F2AB501A014A9
:1004C000A01C192B21103708A4003808A5007D3086
:1004D000A8000130A900221225082906A300280837
:1004E000A4022908031C290FA502A31F7D2A2508A1
:1004F0002906A300A31B7D2A2216221E822AA51BE1
:100500002212842AA51B2216221A872A882A21143D
:10051000211CBE2A3708A4003808A500BE30A80058
:10052000A9012808A4022908031C290FA5022408F0
:10053000BB002508BC003B08A6003C08A7004B30C8
:10054000A400A50191202608BB002708BC003B0899
:10055000A4003C08A500BE30A800A9018A110A1217
:10056000C1202408BB002508BC004B30A800A9010D
:100570002808BB0729080318290FBC0721103708D2
:10058000A4003808A500BF30A800A9012212250840
:100590002906A3002808A4022908031C290FA50284
:1005A0008A110A12A31FDA2A25082906A300A31B11
:1005B000DA2A2216221EDF2AA51B2212E12AA51BF7
:1005C0002216221AE42AE52A2114211C192B3708A5
:1005D000A4003808A500A801A9012808A402290838
:1005E000031C290FA5022408BB002508BC003B08FA
:1005F000A6003C08A7004B30A400A50191202608C6
:10060000BB002708BC003B08A4003C08A500BE3086
:10061000A800A9018A110A12C1202408BB002508DC
:10062000BC00A801A9012808BB0729080318290F45
:10063000BC07A0148A110A12A01B1F2BA010A01C1B
:10064000312B0A30BF00C0013B08A4003C08A500C4
:100650003F08A8004008A900C1202408C1002508BF
:10066000C200A0148A110A12A01B372BA010A01CD4
:10067000492B0A30BF00C0013B08A4003C08A5007C
:100680003F08A8004008A900C1202A08C3002B0881
:10069000C400A0148A110A12A01D4F2BA010A01C88
:1006A000B82BB030C500C60141084502031D602BC0
:1006B00042084602031D602B8030C100C201AD2BF1
:1006C0004108A4004208A500A801A901221225089A
:1006D0002906A3002808A4022908031C290FA50243
:1006E000A31F782B25082906A300A31B782B22160D
:1006F000221E7D2BA51B22127F2BA51B2216221A40
:10070000822B862B2030C100C201AD2B4108A400F2
:100710004208A5008130A800A90122122508290657
:10072000A3002808A4022908031C290FA502A31F5F
:100730009F2B25082906A300A31B9F2B2216221EF0
:10074000A42BA51B2212A62BA51B2216221AA92B0D
:10075000AA2BAD2B2030C100C2014108A4004208E1
:10076000A5000820C500C601C509C60945088800BE
:10077000A018A114A01CA1108A110A12A11CC22B3E
:100780000910C32B0914A018A114A01CA110A110BA
:10079000A11CCC2B8813CD2B8817A018A114A01C4A
:1007A000A110A1108310A118831483180914831CAD
:1007B0000910A014A019DD2BA010A01C462CB030ED
:1007C000C500C60143084502031DEE2B440846023E
:1007D000031DEE2B8030C300C4013B2C4308A40052
:1007E0004408A500A801A901221225082906A30092
:1007F0002808A4022908031C290FA502A31F062C00
:1008000025082906A300A31B062C2216221E0B2C4A
:10081000A51B22120D2CA51B2216221A102C142CFB
:100820002030C300C4013B2C4308A4004408A500A9
:100830008130A800A901221225082906A300280852
:10084000A4022908031C290FA502A31F2D2C25088B
:100850002906A300A31B2D2C2216221E322CA51B19
:100860002212342CA51B2216221A372C382C3B2C92
:100870002030C300C4014308A4004408A500082098
:10088000C500C601C509C60945088800A01821157C
:10089000A01C21118A110A12211D502C8910512CE3
:1008A0008914A0182115A01C2111211183102119D0
:1008B000831483188914831C8910A014A01C642C31
:1008C0008C1AA0148C1EA010A01C7B2C8C1AA014B7
:1008D0008C1EA010A01C7B2CC701C8018C1E7B2C79
:1008E0001A08C7009818772C1819772C7B2C1A082F
:1008F0001A0818121816A014A01B7F2CA010A11102
:10090000A0182116A01C2112211EA62C0930A4001B
:10091000A501221225083C06A3003B08A4023C08BE
:10092000031C3C0FA502A31F9B2C25083C06A3001B
:10093000A31B9B2C2216221EA02CA51B2212A22C2C
:10094000A51B2216221AA52CA62C2112211EAF2C83
:10095000A11AAE2CA116C901CA012117B02CA112EF
:100960004908CB004A08CC004908A4004A08A50061
:100970000B30A800A901221225082906A300280887
:10098000A4022908031C290FA502A31FCD2C2508AA
:100990002906A300A31BCD2C2216221ED22CA51B98
:1009A0002212D42CA51B2216221AD72CD82CDB2CD1
:1009B000FF30CB00CC00211FEC2C211083108316BC
:1009C00098188314831283182114831C2110211872
:1009D000EC2CFF30CB00CC00C501C60145084B0212
:1009E000031DF92C46084C02031DF92C6E30CD0076
:1009F000CE010130C500C60145084B02031D072D7D
:100A000046084C02031D072D3030CD00CE010230C8
:100A1000C500C60145084B02031D152D46084C02B2
:100A2000031D152D2E30CD00CE010330C500C601AB
:100A300045084B02031D232D46084C02031D232DA0
:100A40007630CD00CE010430C500C60145084B020A
:100A5000031D312D46084C02031D312D6130CD00A0
:100A6000CE010530C500C60145084B02031D3F2DD0
:100A700046084C02031D3F2D6C30CD00CE010630E0
:100A8000C500C60145084B02031D4D2D46084C020A
:100A9000031D4D2D3D30CD00CE010730C500C601F0
:100AA000211045084B02031D5A2D46084C02031D18
:100AB0005A2D2114211C8F2D3B08CF003C08D0005B
:100AC000A1170130C500C6014F08A4005008A500B9
:100AD0004508A8004608A900C1202408CD00250823
:100AE000CE004508A6004608A7004D08A4004E0801
:100AF000A5008A110A1291202608C5002708C60001
:100B00004508CF024608031C460FD0023030C5000E
:100B1000C6014508CD0746080318460FCE07083022
:100B2000C500C60145084B028A110A12031D9F2DFC
:100B300046084C02031D9F2DFF30CD00CE01093029
:100B4000C500C60145084B02031DAD2D46084C02E9
:100B5000031DAD2DFF30CD00CE010A30C500C6010A
:100B600045084B02031DBB2D46084C02031DBB2D3F
:100B7000FF30CD00CE014B08A4004C08A500A80111
:100B8000A901221225082906A3002808A402290881
:100B9000031C290FA502A31FD32D25082906A30096
:100BA000A31BD32D2216221ED82DA51B2212DA2D0F
:100BB000A51B2216221ADD2DDE2DE92D211FE92D80
:100BC0008316981CE02D83124D089900C90A031959
:100BD000CA0A21124908A4004A08A5000B30A8003F
:100BE000A901221225082906A3002808A402290821
:100BF000031C290FA502A31F032E25082906A30005
:100C0000A31B032E2216221E082EA51B22120A2E1B
:100C1000A51B2216221A0D2E112E211F102E211671
:100C2000122E2113211E152EA115A0182116A01C6D
:100C30002112211E3F2E3B08A4003C08A5000A30CB
:100C4000A800A901221225082906A3002808A40249
:100C50002908031C290FA502A31F342E25082906E5
:100C6000A300A31B342E2216221E392EA51B2212EE
:100C70003B2EA51B2216221A3E2E3F2E2112211E8C
:100C8000482E2218472E2214D101D201A214492E37
:100C900022105108CB005208CC005108A400520881
:100CA000A5000C30A800A901221225082906A300DE
:100CB0002808A4022908031C290FA502A31F662ED9
:100CC00025082906A300A31B662E2216221E6B2EC2
:100CD000A51B22126D2EA51B2216221A702E712E14
:100CE000742EFF30CB00CC00A21C852E2110831067
:100CF000831698188314831283182114831C2110DF
:100D00002118852EFF30CB00CC00C501C601450857
:100D10004B02031D922E46084C02031D922E6E308C
:100D2000CD00CE010130C500C60145084B02031DB0
:100D3000A02E46084C02031DA02E3030CD00CE015F
:100D40000230C500C60145084B02031DAE2E460801
:100D50004C02031DAE2E2E30CD00CE010330C50057
:100D6000C60145084B02031DBC2E46084C02031D5C
:100D7000BC2E7630CD00CE010430C500C60145083A
:100D80004B02031DCA2E46084C02031DCA2E6130B9
:100D9000CD00CE010530C500C60145084B02031D3C
:100DA000D82E46084C02031DD82E6C30CD00CE0143
:100DB0000630C500C60145084B02031DE62E460855
:100DC0004C02031DE62E3D30CD00CE010730C5009C
:100DD000C601211045084B02031DF32E46084C02A4
:100DE000031DF32E2114211C392F3B08D3003C088E
:100DF000D40022150A30C500C6015308A4005408C7
:100E0000A5004508A8004608A900C1202408CD0077
:100E10002508CE004508A6004608A7004D08A400F6
:100E20004E08A5008A110A1291202608C50027083D
:100E3000C6004508D3024608031C460FD4023030D2
:100E4000C500C6014508CD0746080318460FCE0762
:100E500045084D028A110A12031D382F46084E021A
:100E6000031D382F221D372F2030CD00CE01392F02
:100E700022110830C500C601211045084B02031D90
:100E8000462F46084C02031D462F2114211C762FA5
:100E90000130C500C6015308A4005408A500450848
:100EA000A8004608A900C1202408CD002508CE00CE
:100EB0004508A6004608A7004D08A4004E08A50056
:100EC0008A110A1291202608C5002708C600450885
:100ED000D3024608031C460FD4023030C500C601B9
:100EE0004508CD0746080318460FCE070930C50050
:100EF000C60145084B028A110A12031D862F4608B7
:100F00004C02031D862FFF30CD00CE010A30C500F4
:100F1000C60145084B02031D942F46084C02031DD1
:100F2000942FFF30CD00CE010B30C500C60145081F
:100F30004B02031DA22F46084C02031DA22FFF30B7
:100F4000CD00CE014B08A4004C08A500A801A901C2
:100F5000221225082906A3002808A4022908031C38
:100F6000290FA502A31FBA2F25082906A300A31B3A
:100F7000BA2F2216221EBF2FA51B2212C12FA51B7E
:100F80002216221AC42FC52FD02FA21CD02F8316B1
:100F9000981CC72F83124D089900D10A0319D20A51
:100FA00021125108A4005208A5000C30A800A90184
:100FB000221225082906A3002808A4022908031CD8
:100FC000290FA502A31FEA2F25082906A300A31BAA
:100FD000EA2F2216221EEF2FA51B2212F12FA51B8E
:100FE0002216221AF42FF82FA21CF72F2116F92F00
:100FF000A210211EFC2FA115A119A014A11DA01043
:10100000A0148A15A01C11283030A800A901470897
:101010002802031D102848082902031D1028112842
:10102000A010A01C14280714A014A01C24283130E0
:10103000A800A90147082802031D232848082902FF
:10104000031D23282428A010A01C27280710A01463
:1010500006192B28A010A01C2E280715A01406186E
:101060003228A010A01C352807118A118A116F2977
:0210700038281E
:02400E00723FFF
:024010000000AE
:00000001FF
