:020000040000FA
:1000000083018A010000AF28090000000000000001
:10001000A701A6010310A50CA40C1030AE00031C10
:1000200017282208A6070318A70A2308A707031002
:10003000A70CA60CA50CA40CAE0B0F280800A80159
:10004000A7010310A60CA50CA40C1830AE00031CCD
:100050002F282208A70723080318230FA807031037
:10006000A80CA70CA60CA50CA40CAE0B2728080006
:1000700023082706A100A71F4228A609A709A60A48
:100080000319A70AA31F4928A209A309A20A031951
:10009000A30AA901A80103101130AE00A20DA30DFF
:1000A000AE0303196728A80DA90D2608A802031C92
:1000B000A9032708A902A91F65282608A80703186D
:1000C000A90A2708A90703104E2803144E28A11FC8
:1000D0000800A209A309A20A0319A30A0800240818
:1000E0002706A1008A110A12A71F7B28A609A709C3
:1000F000A60A0319A70AA41F8528A209A309A4090F
:10010000A20A0319A30A0319A40AA901A80103104A
:100110001930AE00A20DA30DA40DAE030319A4283F
:10012000A80DA90D2608A802031CA9032708A902E7
:10013000A91FA2282608A8070318A90A2708A907A3
:1001400003108A2803148A28A11F0800A209A30902
:10015000A409A20A0319A30A0319A40A0800640047
:10016000883095001330960000308E0000308F00EC
:10017000313090000B3097005F30A00021308400B8
:100180008001840AA00BC028831603178801890107
:100190008312031300308500003086000030870092
:1001A00000308800003089008316FF308500FF3062
:1001B0008600FA308700FF308800FB308900831208
:1001C0000C1920160C1D20120C1DE4280C116400C3
:1001D0002014201C0A2989309F00831680309F003C
:1001E0000317FF3088003F308900831203131A3051
:1001F000A300A30BF9289F149F18FC281E08B40025
:1002000083161E088312B300831680309F000317E5
:1002100088018901831203132014201CC629A01011
:100220003508A2003608A3007D30A6000130A700E3
:10023000A01223082706A1002608A2022708031CF3
:10024000270FA302A11F2A2923082706A100A11B0B
:100250002A29A016A01E2F29A31BA0123129A31BF7
:10026000A016A01A34293529A014A01C6B29350822
:10027000A2003608A300BE30A600A7012608A202ED
:100280002708031C270FA3022208B7002308B80081
:100290003708A4003808A5004B30A200A3010820AD
:1002A0002408B7002508B8003708A2003808A300C2
:1002B000BE30A600A7018A110A1238202208B70012
:1002C0002308B8004B30A600A7012608B707270867
:1002D0000318270FB807A0103508A2003608A3009E
:1002E000BF30A600A701A01223082706A1002608F8
:1002F000A2022708031C270FA3028A110A12A11FBA
:10030000872923082706A100A11B8729A016A01E64
:100310008C29A31BA0128E29A31BA016A01A912919
:100320009229A014A01CC6293508A2003608A300F3
:10033000A601A7012608A2022708031C270FA30273
:100340002208B7002308B8003708A4003808A50021
:100350004B30A200A30108202408B7002508B800EC
:100360003708A2003808A300BE30A600A7018A11F2
:100370000A1238202208B7002308B800A601A701F6
:100380002608B70727080318270FB80720148A1173
:100390000A128619CC29201020182015201C2011A3
:1003A000201DD329071420182015201C2011201DE2
:1003B000DA29091120140618DE2920102018A015AA
:1003C000201CA011A01DE52907102018A015201C35
:1003D000A011A01DEC29091520148618F029201061
:0A03E000201CF3290715DF28F4297B
:02400E00E223AB
:024010000006A8
:00000001FF
