:020000040000FA
:1000000083018A01000008280900000000000000A8
:100010006400883095001330960000308E00003068
:100020008F00313090000B3097005F30A0002130FE
:1000300084008001840AA00B192883160317880105
:1000400089018312031300308500003086000030E0
:10005000870000308800003089008316FF3085005B
:10006000FF308600FE308700FF308800FB308900BB
:1000700083120C1920150C1D20110C1D3D280C118C
:1000800064002014061845282010831020188314BB
:1000900083180915831C0911201486185028201074
:1000A00083102018831483180915831C0911201448
:1000B00006195B2820108310201883148318091553
:1000C000831C09112014861966282010831020181B
:1000D000831483180915831C09112014061A71282A
:1000E000201083102018831483180915831C09110C
:1000F0002014861A7C28201083102018831483185B
:100100000915831C09112014201CAE283308A200F5
:100110006430A600A01122082606A1002608A2022B
:10012000A11F982822082606A100A11B9828A01527
:10013000A01D9D28A21BA0119F28A21BA015A019DD
:10014000A228A428B30AAA28B301A018A928A01499
:10015000AA28A010A018AD282010AF28B301831042
:100160002018831483180714831C07103828B72815
:02400E00E223AB
:024010000006A8
:00000001FF
