:020000040000FA
:1000000083018A0100003829090000000000000077
:10001000003025078A001030240703188A0A82005E
:100020003F3406345B344F3466346D347D340734EA
:100030007F346F3477347C3439345E3479347134BE
:10004000BF348634DB34CF34E634ED34FD348734CA
:10005000FF34EF34F734FC34B934DE34F934F1349E
:100060000034B03422344E346D34D234DA34203497
:1000700039340F34723470340C3440348034523498
:100080003F3406345B344F3466346D347D3407348A
:100090007F346F3409340D34613441344334D33404
:1000A0009F3477347C3439345E34793471343D3460
:1000B000743430341E3475343834553454345C342C
:1000C0007334673433346D3478343E341C346A34DA
:1000D00076346E345B34393464340F34233408346A
:1000E00020345F347C3458345E347B3471346F3464
:1000F000743410340E3475341834553454345C343C
:100100007334673450346D3478343E341C346A347C
:1001100076346E345B34393430340F340134003487
:100120006334A901A8010310A70CA60C1030B0007D
:10013000031CA0282408A8070318A90A2508A90752
:100140000310A90CA80CA70CA60CB00B982808004B
:10015000AA01A9010310A80CA70CA60C1830B00026
:10016000031CB8282408A90725080318250FAA0787
:100170000310AA0CA90CA80CA70CA60CB00BB02855
:10018000080025082906A300A91FCB28A809A9094A
:10019000A80A0319A90AA51FD228A409A509A40A17
:1001A0000319A50AAB01AA0103101130B000A40D78
:1001B000A50DB0030319F028AA0DAB0D2808AA025B
:1001C000031CAB032908AB02AB1FEE282808AA07C3
:1001D0000318AB0A2908AB070310D7280314D72844
:1001E000A31F0800A409A509A40A0319A50A080069
:1001F00026082906A3008A110A12A91F0429A809A2
:10020000A909A80A0319A90AA61F0E29A409A50964
:10021000A609A40A0319A50A0319A60AAB01AA0193
:1002200003101930B000A40DA50DA60DB0030319DD
:100230002D29AA0DAB0D2808AA02031CAB0329081F
:10024000AB02AB1F2B292808AA070318AB0A290801
:10025000AB070310132903141329A31F0800A409D3
:10026000A509A609A40A0319A50A0319A60A0800E4
:100270006400C43095000930960000308E000030D4
:100280008F00313090000B3097005F30A00021309C
:1002900084008001840AA00B492983160317880172
:1002A000890183120313003085000030860000307E
:1002B000870000308800003089008316FF308500F9
:1002C000FF308600BE3087007F308800FC30890018
:1002D00019309900203098008312903098000C1942
:1002E00035140C1D35100C1D73290C1164002014DD
:1002F000201C7C29831688018312201C81298316E7
:10030000890183122014201CAD293608A400013075
:10031000A800B51024082806A3002808A402A31FDB
:10032000972924082806A300A31B9729B514B51CF8
:100330009C29A41BB5109E29A41BB514B518A1298E
:10034000A329B60AA929B601A018A829A014A92989
:10035000A010A018AC292010AE29B6012018201535
:10036000201C20112014201CE8293708A40038087C
:10037000A5005830A8000230A900B51025082906AC
:10038000A3002808A4022908031C290FA502A31F03
:10039000CF2925082906A300A31BCF29B514B51C16
:1003A000D429A51BB510D629A51BB514B518D92974
:1003B000DD29B70A0319B80AE429B701B801A01961
:1003C000E329A015E429A011A019E7292010EA29A2
:1003D000B701B801201C0B2A81309F0083168030A2
:1003E0009F000317FF3088003F30890083120313FA
:1003F0001A30A500A50BFA299F149F18FD291E0885
:10040000BA0083161E088312B900831680309F003D
:100410000317880189018312031320182016201C5A
:100420002012201AA016201EA0122014201CD02A50
:1004300020133908A4003A08A500A8010430A90037
:10044000B51025082906A3002808A4022908031CC2
:10045000290FA502A31F322A25082906A300A31BE2
:10046000322AB514B51C372AA51BB510392AA51B8D
:10047000B514B5183C2A3D2A2017201F742A3908C4
:10048000A4003A08A500FF30A8000130A900280800
:10049000A4022908031C290FA5022408BB00250873
:1004A000BC003B08A6003C08A7001930A400A50129
:1004B00091202608BB002708BC003B08A4003C088C
:1004C000A500A8010230A9008A110A12C12024083F
:1004D000BB002508BC001930A800A9012808BB07EB
:1004E00029080318290FBC0720133908A4003A086B
:1004F000A500A8010230A900B51025082906A3000F
:100500002808A4022908031C290FA5028A110A122F
:10051000A31F902A25082906A300A31B902AB5141F
:10052000B51C952AA51BB510972AA51BB514B5189F
:100530009A2A9B2A2017201FD02A3908A4003A089B
:10054000A500A801A9012808A4022908031C290F55
:10055000A5022408BB002508BC003B08A6003C08F7
:10056000A7001930A400A50191202608BB00270888
:10057000BC003B08A4003C08A500FF30A8000130E7
:10058000A9008A110A12C1202408BB002508BC005A
:10059000A801A9012808BB0729080318290FBC07CF
:1005A00020148A110A12201CE52A0A30C100C20157
:1005B0003B08A4003C08A5004108A8004208A90087
:1005C000C1202408C3002508C40020148A110A127F
:1005D000201CFA2A0A30C100C2013B08A4003C08D2
:1005E000A5004108A8004208A900C1202A08C500AA
:1005F0002B08C60020148A110A12201D002B20107F
:10060000201C692BB030C700C80143084702031DF6
:10061000112B44084802031D112B8030C300C40174
:100620005E2B4308A4004408A500A801A901B51049
:1006300025082906A3002808A4022908031C290F5D
:10064000A502A31F292B25082906A300A31B292BDC
:10065000B514B51C2E2BA51BB510302BA51BB5143E
:10066000B518332B372B2030C300C4015E2B430851
:10067000A4004408A5008130A800A901B5102508F0
:100680002906A3002808A4022908031C290FA50293
:10069000A31F502B25082906A300A31B502BB5141C
:1006A000B51C552BA51BB510572BA51BB514B5189C
:1006B0005A2B5B2B5E2B2030C300C4014308A400DF
:1006C0004408A5000820C700C801C709C809470891
:1006D00088002018A017201CA0138A110A12A01F3E
:1006E000732B0910742B09142018A017201CA013B9
:1006F000A01F7C2B88137D2B88172018A017201C87
:10070000A0138310A01B831483180914831C0910E1
:10071000201420198C2B2010201CF52BB030C70082
:10072000C80145084702031D9D2B46084802031DCA
:100730009D2B8030C500C601EA2B4508A400460861
:10074000A500A801A901B51025082906A3002808BD
:10075000A4022908031C290FA502A31FB52B2508F5
:100760002906A300A31BB52BB514B51CBA2BA51BDA
:10077000B510BC2BA51BB514B518BF2BC32B20304F
:10078000C500C601EA2B4508A4004608A500813033
:10079000A800A901B51025082906A3002808A4026D
:1007A0002908031C290FA502A31FDC2B25082906F5
:1007B000A300A31BDC2BB514B51CE12BA51BB510A6
:1007C000E32BA51BB514B518E62BE72BEA2B20303D
:1007D000C500C6014508A4004608A5000820C700BA
:1007E000C801C709C8094708880020182114201C1F
:1007F00021108A110A12211CFF2B8910002C891448
:1008000020182114201C2110831021188314831810
:100810008914831C89102014201C122C8C1A20147B
:100820008C1E2010A11020182115201C2111211D23
:100830002E2C8C1A21158C1E2111211D2E2CC90144
:10084000CA018C1E2E2C1A08C90098182A2C1819B7
:100850002A2C2E2C1A081A0818121816211D312CB1
:10086000A11420182115201C2111211D3E2CA11995
:100870003D2CA115CB01CC0121163F2CA1114B0819
:10088000CD004C08CE004B08A4004C08A5000C304D
:10089000A800A901B51025082906A3002808A4026C
:1008A0002908031C290FA502A31F5C2C2508290673
:1008B000A300A31B5C2CB514B51C612CA51BB510A3
:1008C000632CA51BB514B518662C672C6A2CFF3059
:1008D000CD00CE00211E7B2C201383108316981888
:1008E0008314831283182017831C2013201B7B2C56
:1008F000FF30CD00CE00C701C80147084D02031DDF
:10090000882C48084E02031D882C7630CF00D00179
:100910000130C700C80147084D02031D962C480846
:100920004E02031D962C6130CF00D0010230C7006B
:10093000C80147084D02031DA42C48084E02031DA0
:10094000A42C6C30CF00D0010330C700C801470889
:100950004D02031DB22C48084E02031DB22C753007
:10096000CF00D0010430C700C80147084D02031D65
:10097000C02C48084E02031DC02C6530CF00D001AA
:100980000530C700C80147084D02031DCE2C48089A
:100990004E02031DCE2C3A30CF00D0010630C700E6
:1009A000C80147084D02031DDC2C48084E02031DF8
:1009B000DC2C2030CF00D0010730C700C801201345
:1009C00047084D02031DE92C48084E02031DE92C7F
:1009D0002017201F2F2D5308D1005408D200A11634
:1009E0006430C700C8015108A4005208A500470898
:1009F000A8004808A900C1202408CF002508D0007D
:100A00004708A6004808A7004F08A4005008A50002
:100A10008A110A1291202608C7002708C800470833
:100A2000D1024808031C480FD2023030C700C80169
:100A30004708CF0748080318480FD00747084F0258
:100A40008A110A12031D2E2D48085002031D2E2D57
:100A5000A11E2D2D2030CF00D0012F2DA112083046
:100A6000C700C801201347084D02031D3C2D48084C
:100A70004E02031D3C2D2017201F7D2D0A30C7007C
:100A8000C8015108A4005208A5004708A80048085A
:100A9000A900C1202408CF002508D0004708A600DF
:100AA0004808A7004F08A4005008A5008A110A12A0
:100AB00091202608C7002708C8004708D102480827
:100AC000031C480FD2023030C700C8014708CF07C7
:100AD00048080318480FD00747084F028A110A1226
:100AE000031D7C2D48085002031D7C2DA11E7B2D6B
:100AF0002030CF00D0017D2DA1120930C700C801E0
:100B0000201347084D02031D8A2D48084E02031D7D
:100B10008A2D2017201FBA2D0130C700C8015108A7
:100B2000A4005208A5004708A8004808A900C12051
:100B30002408CF002508D0004708A6004808A700D1
:100B40004F08A4005008A5008A110A129120260817
:100B5000C7002708C8004708D1024808031C480FEF
:100B6000D2023030C700C8014708CF074808031831
:100B7000480FD0070A30C700C80147084D028A1144
:100B80000A12031DCA2D48084E02031DCA2D0D303E
:100B9000CF00D0010B30C700C80147084D02031D2C
:100BA000D82D48084E02031DD82D0A30CF00D001A1
:100BB0004D08A4004E08A500A801A901B5102508FC
:100BC0002906A3002808A4022908031C290FA5024E
:100BD000A31FF02D25082906A300A31BF02DB51493
:100BE000B51CF52DA51BB510F72DA51BB514B51813
:100BF000FA2DFB2D062E211E062E8316981CFD2D88
:100C000083124F089900CB0A0319CC0A21114B0813
:100C1000A4004C08A5000C30A800A901B5102508B7
:100C20002906A3002808A4022908031C290FA502ED
:100C3000A31F202E25082906A300A31B202EB514D0
:100C4000B51C252EA51BB510272EA51BB514B51850
:100C50002A2E2E2E211E2D2E21152F2E2112211D42
:100C6000322EA114A1182014A11C2010201421132D
:100C70002018A117201CA113A01A3F2EA113A11FF9
:100C8000422E21172018A117201CA113A11F492EA5
:100C90002117211B2014211F201022102018A2141C
:100CA000201CA210A21C742E0930A400A501B510AE
:100CB00025083C06A3003B08A4023C08031C3C0F8B
:100CC000A502A31F692E25083C06A300A31B692EBD
:100CD000B514B51C6E2EA51BB510702EA51BB51432
:100CE000B518732E742EA210A21C7D2E22197C2EF4
:100CF0002215D501D601A2157E2E22115508CD0050
:100D00005608CE005508A4005608A5000B30A800D0
:100D1000A901B51025082906A3002808A40229085E
:100D2000031C290FA502A31F9B2E25082906A3003B
:100D3000A31B9B2EB514B51CA02EA51BB510A22E6F
:100D4000A51BB514B518A52EA62EA92EFF30CD00D3
:100D5000CE00A21DBA2E2013831083169818831478
:100D6000831283182017831C2013201BBA2EFF30F8
:100D7000CD00CE00C701C80147084D02031DC72E94
:100D800048084E02031DC72E6E30CF00D00101303F
:100D9000C700C80147084D02031DD52E48084E0262
:100DA000031DD52E3030CF00D0010230C700C8015E
:100DB00047084D02031DE32E48084E02031DE32E93
:100DC0002E30CF00D0010330C700C80147084D02C4
:100DD000031DF12E48084E02031DF12E7630CF0080
:100DE000D0010430C700C80147084D02031DFF2E83
:100DF00048084E02031DFF2E6130CF00D0010530A0
:100E0000C700C80147084D02031D0D2F48084E02B8
:100E1000031D0D2F6C30CF00D0010630C700C80174
:100E200047084D02031D1B2F48084E02031D1B2FB0
:100E30003D30CF00D0010730C700C801201347085C
:100E40004D02031D282F48084E02031D282F20178E
:100E5000201F5D2F3B08D7003C08D8002216013028
:100E6000C700C8015708A4005808A5004708A800F3
:100E70004808A900C1202408CF002508D000470851
:100E8000A6004808A7004F08A4005008A5008A1132
:100E90000A1291202608C7002708C8004708D70271
:100EA0004808031C480FD8023030C700C801470863
:100EB000CF0748080318480FD0070830C700C801FB
:100EC00047084D028A110A12031D6D2F48084E0271
:100ED000031D6D2FFF30CF00D0010930C700C801BE
:100EE00047084D02031D7B2F48084E02031D7B2F30
:100EF000FF30CF00D0010A30C700C80147084D02BB
:100F0000031D892F48084E02031D892FFF30CF0093
:100F1000D0014D08A4004E08A500A801A901B510F4
:100F200025082906A3002808A4022908031C290F64
:100F3000A502A31FA12F25082906A300A31BA12FEB
:100F4000B514B51CA62FA51BB510A82FA51BB5144D
:100F5000B518AB2FAC2FB72FA21DB72F8316981C37
:100F6000AE2F83124F089900D50A0319D60AA21092
:100F70005508A4005608A5000B30A800A901B5101B
:100F800025082906A3002808A4022908031C290F04
:100F9000A502A31FD12F25082906A300A31BD12F2B
:100FA000B514B51CD62FA51BB510D82FA51BB5148D
:100FB000B518DB2FDF2FA21DDE2FA214E02FA21108
:100FC000A21CE32F22142018A214201CA2108A15A0
:100FD000A21C0E283B08A4003C08A5000A30A8006B
:100FE000A901B51025082906A3002808A40229088C
:100FF000031C290FA502A31F032825082906A30007
:10100000A31B0328B514B51C0828A51BB5100A2876
:10101000A51BB514B5180D280E28A210A21C172860
:10102000A21A1628A216D901DA0122171828A2122C
:101030005908CD005A08CE005908A4005A08A50046
:101040000C30A800A901B51025082906A30028081E
:10105000A4022908031C290FA502A31F352825086F
:101060002906A300A31B3528B514B51C3A28A51BD7
:10107000B5103C28A51BB514B5183F2840284328B7
:10108000FF30CD00CE00221F54282013831083167A
:1010900098188314831283182017831C2013201B95
:1010A0005428FF30CD00CE00C701C80147084D02CB
:1010B000031D612848084E02031D61286E30CF00D1
:1010C000D0010130C700C80147084D02031D6F2839
:1010D00048084E02031D6F283030CF00D001023087
:1010E000C700C80147084D02031D7D2848084E026D
:1010F000031D7D282E30CF00D0010330C700C8016A
:1011000047084D02031D8B2848084E02031D8B28FB
:101110007630CF00D0010430C700C80147084D0227
:10112000031D992848084E02031D99286130CF00FD
:10113000D0010530C700C80147084D02031DA7288C
:1011400048084E02031DA7286C30CF00D00106309E
:10115000C700C80147084D02031DB52848084E02C4
:10116000031DB5283D30CF00D0010730C700C801AE
:10117000201347084D02031DC22848084E02031DD4
:10118000C2282017201F09293B08DB003C08DC008F
:10119000A2170A30C700C8015B08A4005C08A500BC
:1011A0004708A8004808A9008A11C1202408CF00D8
:1011B0002508D0004708A6004808A7004F08A4004B
:1011C0005008A5008A110A1291202608C700270896
:1011D000C8004708DB024808031C480FDC02303017
:1011E000C700C8014708CF0748080318480FD007B1
:1011F00047084F028A150A12031D082948085002A1
:10120000031D0829A21F07292030CF00D00109297A
:10121000A2130830C700C801201347084D02031D60
:10122000162948084E02031D16292017201F47299A
:101230000130C700C8015B08A4005C08A50047088E
:10124000A8004808A9008A11C1202408CF00250859
:10125000D0004708A6004808A7004F08A40050087F
:10126000A5008A110A1291202608C7002708C80085
:101270004708DB024808031C480FDC023030C70077
:10128000C8014708CF0748080318480FD00709309E
:10129000C700C80147084D028A150A12031D5729C5
:1012A00048084E02031D5729FF30CF00D0010A30F5
:1012B000C700C80147084D02031D652948084E02B2
:1012C000031D6529FF30CF00D0010B30C700C801D6
:1012D00047084D02031D732948084E02031D732958
:1012E000FF30CF00D0014D08A4004E08A500A80192
:1012F000A901B51025082906A3002808A402290879
:10130000031C290FA502A31F8B2925082906A3006A
:10131000A31B8B29B514B51C9029A51BB5109229C8
:10132000A51BB514B51895299629A129221FA12915
:101330008316981C982983124F089900D90A03191B
:10134000DA0AA2105908A4005A08A5000C30A80017
:10135000A901B51025082906A3002808A402290818
:10136000031C290FA502A31FBB2925082906A300DA
:10137000A31BBB29B514B51CC029A51BB510C229D8
:10138000A51BB514B518C529C929221FC829A2143F
:10139000CA292213A21CCD29221422182014221C8F
:1013A00020102014201CE1293030A800A901490890
:1013B0002802031DE0294A082902031DE029E1292A
:1013C0002010201CE42907142014201CF42931309B
:1013D000A800A90149082802031DF3294A08290287
:1013E000031DF329F4292010201CF72907108A1166
:0613F0008A116F29FA29A1
:02400E00723FFF
:024010000000AE
:00000001FF
