:020000040000FA
:1000000083018A0100003829090000000000000077
:10001000003025078A001030240703188A0A82005E
:100020003F3406345B344F3466346D347D340734EA
:100030007F346F3477347C3439345E3479347134BE
:10004000BF348634DB34CF34E634ED34FD348734CA
:10005000FF34EF34F734FC34B934DE34F934F1349E
:100060000034B03422344E346D34D234DA34203497
:1000700039340F34723470340C3440348034523498
:100080003F3406345B344F3466346D347D3407348A
:100090007F346F3409340D34613441344334D33404
:1000A0009F3477347C3439345E34793471343D3460
:1000B000743430341E3475343834553454345C342C
:1000C0007334673433346D3478343E341C346A34DA
:1000D00076346E345B34393464340F34233408346A
:1000E00020345F347C3458345E347B3471346F3464
:1000F000743410340E3475341834553454345C343C
:100100007334673450346D3478343E341C346A347C
:1001100076346E345B34393430340F340134003487
:100120006334A901A8010310A70CA60C1030B0007D
:10013000031CA0282408A8070318A90A2508A90752
:100140000310A90CA80CA70CA60CB00B982808004B
:10015000AA01A9010310A80CA70CA60C1830B00026
:10016000031CB8282408A90725080318250FAA0787
:100170000310AA0CA90CA80CA70CA60CB00BB02855
:10018000080025082906A300A91FCB28A809A9094A
:10019000A80A0319A90AA51FD228A409A509A40A17
:1001A0000319A50AAB01AA0103101130B000A40D78
:1001B000A50DB0030319F028AA0DAB0D2808AA025B
:1001C000031CAB032908AB02AB1FEE282808AA07C3
:1001D0000318AB0A2908AB070310D7280314D72844
:1001E000A31F0800A409A509A40A0319A50A080069
:1001F00026082906A3008A110A12A91F0429A809A2
:10020000A909A80A0319A90AA61F0E29A409A50964
:10021000A609A40A0319A50A0319A60AAB01AA0193
:1002200003101930B000A40DA50DA60DB0030319DD
:100230002D29AA0DAB0D2808AA02031CAB0329081F
:10024000AB02AB1F2B292808AA070318AB0A290801
:10025000AB070310132903141329A31F0800A409D3
:10026000A509A609A40A0319A50A0319A60A0800E4
:100270006400C43095000930960000308E000030D4
:100280008F00313090000B3097005F30A00021309C
:1002900084008001840AA00B492983160317880172
:1002A000890183120313003085000030860000307E
:1002B000870000308800003089008316DF30850019
:1002C000FF308600BA308700FF308800F8308900A0
:1002D00019309900203098008312903098000C1942
:1002E000A2160C1DA2120C1D73290C1164002018FB
:1002F0007B292014B501A014A01C80298316880135
:100300008312A01C8529831689018312A014A01CC6
:10031000B1293608A4000130A800221324082806B9
:10032000A3002808A402A31F9B2924082806A300D1
:10033000A31B9B292217221FA029A41B2213A22939
:10034000A41B2217221BA529A729B60AAD29B6018D
:100350002019AC292015AD2920112019B029A01091
:10036000B229B601A018A015A01CA011A014A01CB1
:10037000D82981309F00831680309F000317FF30FB
:1003800088003F308900831203131A30A500A50BA3
:10039000C7299F149F18CA291E08B80083161E0873
:1003A0008312B700831680309F00031788018901EC
:1003B00083120313A014A01CFC2989309F0083160C
:1003C00080309F000317FF3088003F308900831280
:1003D00003131A30A500A50BEB299F149F18EE29D3
:1003E0001E08BA0083161E088312B90083168030D7
:1003F0009F0003178801890183120313A014A01C16
:10040000332A3B08A4003C08A500C830A800A90175
:10041000221325082906A3002808A4022908031C82
:10042000290FA502A31F1A2A25082906A300A31B2A
:100430001A2A2217221F1F2AA51B2213212AA51BB5
:100440002217221B242A282ABB0A0319BC0A2F2A96
:10045000BB01BC01201A2E2A20162F2A2012201A96
:10046000322AA010352ABB01BC01A01C582AA01AB0
:10047000572AA0163508A4000330A8002213240828
:100480002806A3002808A402A31F4C2A2408280633
:10049000A300A31B4C2A2217221F512AA41B22139C
:1004A000532AA41B2217221B562A572AB50A592A57
:1004B000A0123508A4000330A8002213240828063F
:1004C000A3002808A402A31F6B2A24082806A3005F
:1004D000A31B6B2A2217221F702AA41B2213722A25
:1004E000A41B2217221B752A772AA010782AA01491
:1004F000A0182017A01C2013201BA017201FA0133A
:10050000A01C832AB501A014A01C3D2B2110390882
:10051000A4003A08A5007D30A8000130A9002213EC
:1005200025082906A3002808A4022908031C290F6E
:10053000A502A31FA12A25082906A300A31BA12AFF
:100540002217221FA62AA51B2213A82AA51B2217A1
:10055000221BAB2AAC2A2114211CE22A3908A40050
:100560003A08A500BE30A800A9012808A40229085D
:10057000031C290FA5022408BD002508BE003D0864
:10058000A6003E08A7004B30A400A5019120260834
:10059000BD002708BE003D08A4003E08A500BE30EF
:1005A000A800A9018A110A12C1202408BD0025084B
:1005B000BE004B30A800A9012808BD072908031870
:1005C000290FBE0721103908A4003A08A500BF3042
:1005D000A800A901221325082906A3002808A402BF
:1005E0002908031C290FA5028A110A12A31FFE2A3B
:1005F00025082906A300A31BFE2A2217221F032B6E
:10060000A51B2213052BA51B2217221B082B092B28
:100610002114211C3D2B3908A4003A08A500A8018B
:10062000A9012808A4022908031C290FA5022408EF
:10063000BD002508BE003D08A6003E08A7004B30BF
:10064000A400A50191202608BD002708BE003D0892
:10065000A4003E08A500BE30A800A9018A110A1214
:10066000C1202408BD002508BE00A801A901280852
:10067000BD0729080318290FBE07A0148A110A1202
:10068000A01CFA2B21103708A4003808A500A801E7
:100690000430A900221325082906A3002808A40273
:1006A0002908031C290FA502A31F5C2B2508290676
:1006B000A300A31B5C2B2217221F612BA51B221357
:1006C000632BA51B2217221B662B672B2114211CD1
:1006D0009E2B3708A4003808A500FF30A800013081
:1006E000A9002808A4022908031C290FA502240830
:1006F000C1002508C2004108A6004208A700313009
:10070000A400A50191202608C1002708C2004108C5
:10071000A4004208A500A8010230A9008A110A120B
:10072000C1202408C1002508C2003230A800A90158
:100730002808C10729080318290FC2072110370804
:10074000A4003808A500A8010230A900221325083A
:100750002906A3002808A4022908031C290FA502C2
:100760008A110A12A31FBA2B25082906A300A31B6E
:10077000BA2B2217221FBF2BA51B2213C12BA51B8F
:100780002217221BC42BC52B2114211CFA2B37083E
:10079000A4003808A500A801A9012808A402290876
:1007A000031C290FA5022408C1002508C200410826
:1007B000A6004208A7003230A400A5019120260817
:1007C000C1002708C2004108A4004208A500FF306C
:1007D000A8000130A9008A110A12C1202408C10012
:1007E0002508C200A801A9012808C1072908031883
:1007F000290FC207A0148A110A12A01B002CA010F6
:10080000061E032CA010A01C152C0A30C700C8011E
:100810003D08A4003E08A5004708A8004808A90014
:10082000C1202408C9002508CA008A110A12A01C88
:10083000292C0A30C700C8013D08A4003E08A500C5
:100840004708A8004808A900C1202A08CB002B08A7
:10085000CC00A0148A110A12061A2F2CA010A01C7A
:10086000412C0A30C700C8014108A4004208A50075
:100870004708A8004808A900C1202408C900250885
:10088000CA008A110A12A01C552C0A30C700C801E0
:100890004108A4004208A5004708A8004808A9008C
:1008A000C1202A08CB002B08CC00A0148A110A1200
:1008B000A01D5B2CA010A01CC42CB030CD00CE011C
:1008C00049084D02031D6C2C4A084E02031D6C2C76
:1008D0008030C900CA01B92C4908A4004A08A50003
:1008E000A801A901221325082906A3002808A402AB
:1008F0002908031C290FA502A31F842C25082906FB
:10090000A300A31B842C2217221F892CA51B2213B2
:100910008B2CA51B2217221B8E2C922C2030C90059
:10092000CA01B92C4908A4004A08A5008130A800D2
:10093000A901221325082906A3002808A4022908D2
:10094000031C290FA502A31FAB2C25082906A30011
:10095000A31BAB2C2217221FB02CA51B2213B22CD9
:10096000A51B2217221BB52CB62CB92C2030C90090
:10097000CA014908A4004A08A5000820CD00CE01FC
:10098000CD09CE094D088800A018A114A01CA11003
:100990008A110A12A11CCE2C0910CF2C0914A01800
:1009A000A114A01CA1108310A1188314831809148A
:1009B000831C0910A014A019DE2CA010A01C472D28
:1009C000B030CD00CE014B084D02031DEF2C4C087A
:1009D0004E02031DEF2C8030CB00CC013C2D4B0888
:1009E000A4004C08A500A801A90122132508290686
:1009F000A3002808A4022908031C290FA502A31F8D
:100A0000072D25082906A300A31B072D2217221F47
:100A10000C2DA51B22130E2DA51B2217221B112DF9
:100A2000152D2030CB00CC013C2D4B08A4004C08E8
:100A3000A5008130A800A901221325082906A300DA
:100A40002808A4022908031C290FA502A31F2E2D84
:100A500025082906A300A31B2E2D2217221F332DA4
:100A6000A51B2213352DA51B2217221B382D392D2E
:100A70003C2D2030CB00CC014B08A4004C08A50035
:100A80000820CD00CE01CD09CE094D088800A01860
:100A90002115A01C21118A110A12211D512D891026
:100AA000522D8914A0182115A01C21118310211981
:100AB000831483188914831C8910A014A01C812D11
:100AC0003D08A4003E08A500221325084206A30005
:100AD0004108A4024208031C420FA502A31F762D61
:100AE00025084206A300A31B762D2217221F7B2D6B
:100AF000A51B22137D2DA51B2217221F802D812DC2
:100B0000A010A01CAC2D4F08A4005008A5009030E8
:100B1000A8000130A900221325082906A3002808EF
:100B2000A4022908031C290FA502A31F9D2D250837
:100B30002906A300A31B9D2D2217221FA22DA51B52
:100B40002213A42DA51B2217221BA72DAB2DA0100D
:100B5000CF0A0319D00AAE2DCF01D001A018A115DC
:100B6000A01CA111A11DB52D0714A018A115A01C32
:100B7000A111A11DBC2D0915A018A115A01CA11122
:100B8000A11DC32D8516A018A115A01CA111A11D82
:100B9000CA2D0715A014A01CE92D3D08A4003E088D
:100BA000A5000130A800A90125082906A3002808EE
:100BB000A40729080318290FA507A31BE52D25085D
:100BC0002906A300A31FE52DA2172408D10025089C
:100BD000D200A014A01C0D2E4108A4004208A500BC
:100BE000221325085206A3005108A4025208031C30
:100BF000520FA502A31F022E25085206A300A31B15
:100C0000022E2217221F072EA51B2213092EA51B19
:100C10002217221F0C2E0D2EA010A01C382E5308B8
:100C2000A4005408A5009030A8000130A9002213A8
:100C300025082906A3002808A4022908031C290F57
:100C4000A502A31F292E25082906A300A31B292ED0
:100C50002217221F2E2EA51B2213302EA51B221772
:100C6000221B332E372EA010D30A0319D40A3A2E92
:100C7000D301D401A0182116A01C2112211E412E3F
:100C80000710A0182116A01C2112211E482E0911A0
:100C9000A0182116A01C2112211E4F2E8512A0186B
:100CA0002116A01C2112211E562E0711A014A01CD3
:100CB0005D2E8C1AA0148C1EA010A01C742E8C1AF1
:100CC000A0148C1EA010A01C742ED501D6018C1E61
:100CD000742E1A08D5009818702E1819702E742EBC
:100CE0001A081A0818121816A014A01B782EA010A3
:100CF000A112A0182117A01C2113211F9F2E09301B
:100D0000A400A501221325083E06A3003D08A40265
:100D10003E08031C3E0FA502A31F942E25083E0685
:100D2000A300A31B942E2217221F992EA51B22136A
:100D30009B2EA51B2217221B9E2E9F2E2113211FA7
:100D4000A82EA11BA72EA117D701D8012214A92EC6
:100D5000A1135708D9005808DA005708A40058080A
:100D6000A5000B30A800A901221325082906A3001D
:100D70002808A4022908031C290FA502A31FC62EB8
:100D800025082906A300A31BC62E2217221FCB2E3F
:100D9000A51B2213CD2EA51B2217221BD02ED12E30
:100DA000D42EFF30D900DA00221CE52E211083104A
:100DB000831698188314831283182114831C21101E
:100DC0002118E52EFF30D900DA00CD01CE014D0803
:100DD0005902031DF22E4E085A02031DF22E6E30E8
:100DE000DB00DC010130CD00CE014D085902031DAE
:100DF000002F4E085A02031D002F3030DB00DC01AB
:100E00000230CD00CE014D085902031D0E2F4E08B1
:100E10005A02031D0E2F2E30DB00DC010330CD0003
:100E2000CE014D085902031D1C2F4E085A02031D06
:100E30001C2F7630DB00DC010430CD00CE014D08E4
:100E40005902031D2A2F4E085A02031D2A2F613012
:100E5000DB00DC010530CD00CE014D085902031D39
:100E6000382F4E085A02031D382F6C30DB00DC018E
:100E70000630CD00CE014D085902031D462F4E0805
:100E80005A02031D462F3D30DB00DC010730CD0048
:100E9000CE0121104D085902031D532F4E085A024E
:100EA000031D532F2114211C882F3D08DD003E080F
:100EB000DE00A2140130CD00CE015D08A4005E0862
:100EC000A5004D08A8004E08A900C1202408DB0099
:100ED0002508DC004D08A6004E08A7005B08A4000A
:100EE0005C08A5008A110A1291202608CD00270867
:100EF000CE004D08DD024E08031C4E0FDE023030DE
:100F0000CD00CE014D08DB074E0803184E0FDC075D
:100F10000830CD00CE014D0859028A110A12031D76
:100F2000982F4E085A02031D982FFF30DB00DC017A
:100F30000930CD00CE014D085902031DA62F4E08E1
:100F40005A02031DA62FFF30DB00DC010A30CD0062
:100F5000CE014D085902031DB42F4E085A02031D3D
:100F6000B42FFF30DB00DC015908A4005A08A500AB
:100F7000A801A901221325082906A3002808A40214
:100F80002908031C290FA502A31FCC2F2508290619
:100F9000A300A31BCC2F2217221FD12FA51B221386
:100FA000D32FA51B2217221BD62FD72FE22F221CAF
:100FB000E22F8316981CD92F83125B089900D70A59
:100FC0000319D80A21135708A4005808A5000B30AC
:100FD000A800A901221325082906A3002808A402B5
:100FE0002908031C290FA502A31FFC2F2508290689
:100FF000A300A31BFC2F22178A158A15221F032882
:10100000A51B22130528A51B2217221B08280C2824
:10101000221C0B2821170D282210211F1028A11691
:10102000A0182117A01C2113211F3A283D08A40055
:101030003E08A5000A30A800A901221325082906A8
:10104000A3002808A4022908031C290FA502A31F36
:101050002F2825082906A300A31B2F282217221FAB
:101060003428A51B22133628A51B2217221B39283A
:101070003A282113211F4328221942282215DF0173
:10108000E001A215442822115F08D9006008DA00A7
:101090005F08A4006008A5000C30A800A901221375
:1010A00025082906A3002808A4022908031C290FE3
:1010B000A502A31F612825082906A300A31B6128F8
:1010C0002217221F6628A51B22136828A51B22179A
:1010D000221B6B286C286F28FF30D900DA00A21D74
:1010E0008028211083108316981883148312831884
:1010F0002114831C211021188028FF30D900DA0028
:10110000CD01CE014D085902031D8D284E085A020B
:10111000031D8D286E30DB00DC010130CD00CE01D7
:101120004D085902031D9B284E085A02031D9B2897
:101130003030DB00DC010230CD00CE014D08590219
:10114000031DA9284E085A02031DA9282E30DB00D2
:10115000DC010330CD00CE014D085902031DB72834
:101160004E085A02031DB7287630DB00DC0104303C
:10117000CD00CE014D085902031DC5284E085A0264
:10118000031DC5286130DB00DC010530CD00CE0138
:101190004D085902031DD3284E085A02031DD328B7
:1011A0006C30DB00DC010630CD00CE014D08590269
:1011B000031DE1284E085A02031DE1283D30DB00E3
:1011C000DC010730CD00CE0121104D085902031D6E
:1011D000EE284E085A02031DEE282114211C352941
:1011E0003D08E1003E08E20022160A30CD00CE01A3
:1011F0006108A4006208A5004D08A8004E08A900D7
:101200008A11C1202408DB002508DC004D08A60057
:101210004E08A7005B08A4005C08A5008A110A120A
:1012200091202608CD002708CE004D08E1024E0887
:10123000031C4E0FE2023030CD00CE014D08DB071B
:101240004E0803184E0FDC074D085B028A150A1280
:10125000031D34294E085C02031D3429221E332944
:101260002030DB00DC01352922120830CD00CE0110
:1012700021104D085902031D42294E085A02031D30
:1012800042292114211C73290130CD00CE016108AF
:10129000A4006208A5004D08A8004E08A9008A1104
:1012A000C1202408DB002508DC004D08A6004E08FC
:1012B000A7005B08A4005C08A5008A110A1291200F
:1012C0002608CD002708CE004D08E1024E08031C79
:1012D0004E0FE2023030CD00CE014D08DB074E0844
:1012E00003184E0FDC070930CD00CE014D0859021E
:1012F0008A150A12031D83294E085A02031D8329E9
:10130000FF30DB00DC010A30CD00CE014D08590270
:10131000031D91294E085A02031D9129FF30DB005D
:10132000DC010B30CD00CE014D085902031D9F2971
:101330004E085A02031D9F29FF30DB00DC015908CB
:10134000A4005A08A500A801A9012213250829060E
:10135000A3002808A4022908031C290FA502A31F23
:10136000B72925082906A300A31BB7292217221F86
:10137000BC29A51B2213BE29A51B2217221BC1298C
:10138000C229CD29A21DCD298316981CC4298312F8
:101390005B089900DF0A0319E00A21135F08A40023
:1013A0006008A5000C30A800A90122132508290611
:1013B000A3002808A4022908031C290FA502A31FC3
:1013C000E72925082906A300A31BE7292217221FC6
:1013D000EC29A51B2213EE29A51B2217221BF1299C
:1013E000F529A21DF4292117F629A211211FF92997
:1013F000A116A11AA014A11EA010A014A01C0D2AB1
:101400003030A800A90155082802031D0C2A5608EF
:101410002902031D0C2A0D2AA010A01C102A071453
:10142000A014A01C202A3130A800A90155082802C8
:10143000031D1F2A56082902031D1F2A202AA01057
:10144000A01C232A0710A0140619272AA010A01CEC
:101450002A2A0715A01406182E2AA010A01C312A2B
:0A14600007118A118A116F29342A3E
:02400E00723FFF
:024010000000AE
:00000001FF
