:020000040000FA
:1000000083018A0100003829090000000000000077
:10001000003025078A001030240703188A0A82005E
:100020003F3406345B344F3466346D347D340734EA
:100030007F346F3477347C3439345E3479347134BE
:10004000BF348634DB34CF34E634ED34FD348734CA
:10005000FF34EF34F734FC34B934DE34F934F1349E
:100060000034B03422344E346D34D234DA34203497
:1000700039340F34723470340C3440348034523498
:100080003F3406345B344F3466346D347D3407348A
:100090007F346F3409340D34613441344334D33404
:1000A0009F3477347C3439345E34793471343D3460
:1000B000743430341E3475343834553454345C342C
:1000C0007334673433346D3478343E341C346A34DA
:1000D00076346E345B34393464340F34233408346A
:1000E00020345F347C3458345E347B3471346F3464
:1000F000743410340E3475341834553454345C343C
:100100007334673450346D3478343E341C346A347C
:1001100076346E345B34393430340F340134003487
:100120006334A901A8010310A70CA60C1030B0007D
:10013000031CA0282408A8070318A90A2508A90752
:100140000310A90CA80CA70CA60CB00B982808004B
:10015000AA01A9010310A80CA70CA60C1830B00026
:10016000031CB8282408A90725080318250FAA0787
:100170000310AA0CA90CA80CA70CA60CB00BB02855
:10018000080025082906A300A91FCB28A809A9094A
:10019000A80A0319A90AA51FD228A409A509A40A17
:1001A0000319A50AAB01AA0103101130B000A40D78
:1001B000A50DB0030319F028AA0DAB0D2808AA025B
:1001C000031CAB032908AB02AB1FEE282808AA07C3
:1001D0000318AB0A2908AB070310D7280314D72844
:1001E000A31F0800A409A509A40A0319A50A080069
:1001F00026082906A3008A110A12A91F0429A809A2
:10020000A909A80A0319A90AA61F0E29A409A50964
:10021000A609A40A0319A50A0319A60AAB01AA0193
:1002200003101930B000A40DA50DA60DB0030319DD
:100230002D29AA0DAB0D2808AA02031CAB0329081F
:10024000AB02AB1F2B292808AA070318AB0A290801
:10025000AB070310132903141329A31F0800A409D3
:10026000A509A609A40A0319A50A0319A60A0800E4
:100270006400C43095000930960000308E000030D4
:100280008F00313090000B3097005F30A00021309C
:1002900084008001840AA00B492983160317880172
:1002A000890183120313003085000030860000307E
:1002B000870000308800003089008316FF308500F9
:1002C000FF308600BA3087007F308800FC3089001C
:1002D00019309900203098008312903098000C1942
:1002E00022160C1D22120C1D73290C1164002018FB
:1002F0007B292014B501A014A01C80298316880135
:100300008312A0182015A01C20112011201D8A295D
:10031000831689018312A014A01CB6293608A400F4
:100320000130A800A21224082806A3002808A4026D
:10033000A31FA02924082806A300A31BA029A216F6
:10034000A21EA529A41BA212A729A41BA216A21AA9
:10035000AA29AC29B60AB229B601A019B129A0155B
:10036000B229A011A019B529A010B729B601A0186B
:100370002016A01C2012A014A01CDD2989309F008B
:10038000831680309F000317FF3088003F308900BC
:10039000831203131A30A500A50BCC299F149F18B4
:1003A000CF291E08B80083161E088312B7008316D3
:1003B00080309F0003178801890183120313A01462
:1003C000A01C142A3908A4003A08A500C830A800C7
:1003D000A901A21225082906A3002808A4022908B9
:1003E000031C290FA502A31FFB2925082906A3002A
:1003F000A31BFB29A216A21E002AA51BA212022AD9
:10040000A51BA216A21A052A092AB90A0319BA0AB3
:10041000102AB901BA01A01A0F2AA016102AA01298
:10042000A01A132AA010162AB901BA01A01C392A51
:10043000201B382A20173508A4000330A800A21278
:1004400024082806A3002808A402A31F2D2A240894
:100450002806A300A31B2D2AA216A21E322AA41B23
:10046000A212342AA41BA216A21A372A382AB50AC5
:100470003A2A20133508A4000330A800A212240849
:100480002806A3002808A402A31F4C2A2408280633
:10049000A300A31B4C2AA216A21E512AA41BA2121F
:1004A000532AA41BA216A21A562A582AA010592A67
:1004B000A014A018A017A01CA013A01B2114A01FFB
:1004C0002110A01C642AB501A014A01C1E2BA11091
:1004D0003708A4003808A5007D30A8000130A90025
:1004E000A21225082906A3002808A4022908031C33
:1004F000290FA502A31F822A25082906A300A31BF2
:10050000822AA216A21E872AA51BA212892AA51B2F
:10051000A216A21A8C2A8D2AA114A11CC32A37085C
:10052000A4003808A500BE30A800A9012808A4022C
:100530002908031C290FA5022408BB002508BC00BC
:100540003B08A6003C08A7004B30A400A501912061
:100550002608BB002708BC003B08A4003C08A500F7
:10056000BE30A800A9018A110A12C1202408BB00CC
:100570002508BC004B30A800A9012808BB072908A2
:100580000318290FBC07A1103708A4003808A500DC
:10059000BF30A800A901A21225082906A300280837
:1005A000A4022908031C290FA5028A110A12A31FFD
:1005B000DF2A25082906A300A31BDF2AA216A21EF4
:1005C000E42AA51BA212E62AA51BA216A21AE92A52
:1005D000EA2AA114A11C1E2B3708A4003808A50084
:1005E000A801A9012808A4022908031C290FA502B3
:1005F0002408BB002508BC003B08A6003C08A70057
:100600004B30A400A50191202608BB002708BC00A0
:100610003B08A4003C08A500BE30A800A9018A112F
:100620000A12C1202408BB002508BC00A801A901AA
:100630002808BB0729080318290FBC07A0148A1132
:100640000A122118242BA010A01C362B0A30BF0040
:10065000C0013B08A4003C08A5003F08A8004008D2
:10066000A900C1202408C1002508C200A0148A11D5
:100670000A1221183C2BA010A01C4E2B0A30BF00E0
:10068000C0013B08A4003C08A5003F08A8004008A2
:10069000A900C1202A08C3002B08C400A0148A1195
:1006A0000A12201E542BA010A01CBD2BB030C50078
:1006B000C60141084502031D652B42084602031D81
:1006C000652B8030C100C201B22B4108A400420852
:1006D000A500A801A901A21225082906A30028083F
:1006E000A4022908031C290FA502A31F7D2B25089E
:1006F0002906A300A31B7D2BA216A21E822BA51BDD
:10070000A212842BA51BA216A21A872B8B2B20309A
:10071000C100C201B22B4108A4004208A5008130EB
:10072000A800A901A21225082906A3002808A402EE
:100730002908031C290FA502A31FA42B250829069D
:10074000A300A31BA42BA216A21EA92BA51BA212B9
:10075000AB2BA51BA216A21AAE2BAF2BB22B2030AF
:10076000C100C2014108A4004208A5000820C5003C
:10077000C601C509C60945088800A0182115A01C96
:1007800021118A110A12211DC72B0910C82B091427
:10079000A0182115A01C21112111211DD12B881376
:1007A000D22B8817A0182115A01C21118310211904
:1007B000831483180914831C0910A014201AE12B38
:1007C000A010A01C4A2CB030C500C6014308450249
:1007D000031DF22B44084602031DF22B8030C30098
:1007E000C4013F2C4308A4004408A500A801A901A6
:1007F000A21225082906A3002808A4022908031C20
:10080000290FA502A31F0A2C25082906A300A31B54
:100810000A2CA216A21E0F2CA51BA212112CA51B7E
:10082000A216A21A142C182C2030C300C4013F2C8D
:100830004308A4004408A5008130A800A901A21221
:1008400025082906A3002808A4022908031C290F4B
:10085000A502A31F312C25082906A300A31B312CB8
:10086000A216A21E362CA51BA212382CA51BA2165E
:10087000A21A3B2C3C2C3F2C2030C300C40143085F
:10088000A4004408A5000820C500C601C509C60982
:1008900045088800A018A115A01CA1118A110A12F0
:1008A000A11D542C8910552C8914A018A115A01C29
:1008B000A1118310A119831483188914831C891032
:1008C000A014A01C672C8C1AA0148C1EA010A01CB5
:1008D0007E2C8C1AA0148C1EA010A01C7E2CC7018C
:1008E000C8018C1E7E2C1A08C70098187A2C18197B
:1008F0007A2C7E2C1A081A0818121816A01421181F
:10090000822CA0102112A018A116A01CA112A11EB9
:10091000A92C0930A400A501A21225083C06A300B9
:100920003B08A4023C08031C3C0FA502A31F9E2CFD
:1009300025083C06A300A31B9E2CA216A21EA32CD6
:10094000A51BA212A52CA51BA216A21AA82CA92C85
:10095000A112A11EB22C211BB12C2117C901CA0161
:10096000A117B32C21134908CB004A08CC00490831
:10097000A4004A08A5000B30A800A901A21225086E
:100980002906A3002808A4022908031C290FA50290
:10099000A31FD02C25082906A300A31BD02CA21628
:1009A000A21ED52CA51BA212D72CA51BA216A21ADB
:1009B000DA2CDB2CDE2CFF30CB00CC00A11FEF2C7F
:1009C000A110831083169818831483128318A1141E
:1009D000831CA110A118EF2CFF30CB00CC00C50167
:1009E000C60145084B02031DFC2C46084C02031DA2
:1009F000FC2C6E30CD00CE010130C500C60145088B
:100A00004B02031D0A2D46084C02031D0A2D3030EF
:100A1000CD00CE010230C500C60145084B02031DC2
:100A2000182D46084C02031D182D2E30CD00CE0186
:100A30000330C500C60145084B02031D262D46089C
:100A40004C02031D262D7630CD00CE010430C500AA
:100A5000C60145084B02031D342D46084C02031DF8
:100A6000342D6130CD00CE010530C500C6014508EA
:100A70004B02031D422D46084C02031D422D6C30D3
:100A8000CD00CE010630C500C60145084B02031D4E
:100A9000502D46084C02031D502D3D30CD00CE0197
:100AA0000730C500C601A11045084B02031D5D2D8E
:100AB00046084C02031D5D2DA114A11C922D3B087C
:100AC000CF003C08D00022140130C500C6014F08F9
:100AD000A4005008A5004508A8004608A900C120A8
:100AE0002408CD002508CE004508A6004608A7002A
:100AF0004D08A4004E08A5008A110A12912026086C
:100B0000C5002708C6004508CF024608031C460F4B
:100B1000D0023030C500C6014508CD07460803188D
:100B2000460FCE070830C500C60145084B028A11A2
:100B30000A12031DA22D46084C02031DA22DFF30F0
:100B4000CD00CE010930C500C60145084B02031D8A
:100B5000B02D46084C02031DB02DFF30CD00CE0154
:100B60000A30C500C60145084B02031DBE2D4608CC
:100B70004C02031DBE2DFF30CD00CE014B08A4005A
:100B80004C08A500A801A901A21225082906A30066
:100B90002808A4022908031C290FA502A31FD62D8B
:100BA00025082906A300A31BD62DA216A21EDB2D05
:100BB000A51BA212DD2DA51BA216A21AE02DE12D68
:100BC000EC2DA11FEC2D8316981CE32D83124D08EC
:100BD0009900C90A0319CA0AA1124908A4004A08BF
:100BE000A5000B30A800A901A21225082906A30020
:100BF0002808A4022908031C290FA502A31F062EFA
:100C000025082906A300A31B062EA216A21E0B2E42
:100C1000A51BA2120D2EA51BA216A21A102E142E71
:100C2000A11F132EA116152EA113A11E182E2116D9
:100C3000A018A116A01CA112A11E422E3B08A400C0
:100C40003C08A5000A30A800A901A212250829061F
:100C5000A3002808A4022908031C290FA502A31F2A
:100C6000372E25082906A300A31B372EA216A21E85
:100C70003C2EA51BA2123E2EA51BA216A21A412E87
:100C8000422EA112A11E4B2EA2184A2EA214D1014F
:100C9000D20122154C2EA2105108CB005208CC00D4
:100CA0005108A4005208A5000C30A800A901A21206
:100CB00025082906A3002808A4022908031C290FD7
:100CC000A502A31F692E25082906A300A31B692ED0
:100CD000A216A21E6E2EA51BA212702EA51BA21676
:100CE000A21A732E742E772EFF30CB00CC00221D5B
:100CF000882EA110831083169818831483128318EA
:100D0000A114831CA110A118882EFF30CB00CC00A9
:100D1000C501C60145084B02031D952E46084C022D
:100D2000031D952E6E30CD00CE010130C500C601E9
:100D300045084B02031DA32E46084C02031DA32E9B
:100D40003030CD00CE010230C500C60145084B024F
:100D5000031DB12E46084C02031DB12E2E30CD00CE
:100D6000CE010330C500C60145084B02031DBF2E4E
:100D700046084C02031DBF2E7630CD00CE01043054
:100D8000C500C60145084B02031DCD2E46084C0286
:100D9000031DCD2E6130CD00CE010530C500C6014A
:100DA00045084B02031DDB2E46084C02031DDB2EBB
:100DB0006C30CD00CE010630C500C60145084B029F
:100DC000031DE92E46084C02031DE92E3D30CD00DF
:100DD000CE010730C500C601A11045084B02031D16
:100DE000F62E46084C02031DF62EA114A11C3C2F22
:100DF0003B08D3003C08D400A2150A30C500C60148
:100E00005308A4005408A5004508A8004608A900F6
:100E1000C1202408CD002508CE004508A6004608BC
:100E2000A7004D08A4004E08A5008A110A129120BF
:100E30002608C5002708C6004508D3024608031C3B
:100E4000460FD4023030C500C6014508CD0746081C
:100E50000318460FCE0745084D028A110A12031DDA
:100E60003B2F46084E02031D3B2FA21D3A2F203078
:100E7000CD00CE013C2FA2110830C500C601A11043
:100E800045084B02031D492F46084C02031D492FFC
:100E9000A114A11C792F0130C500C6015308A4007C
:100EA0005408A5004508A8004608A900C120240848
:100EB000CD002508CE004508A6004608A7004D082D
:100EC000A4004E08A5008A110A1291202608C50028
:100ED0002708C6004508D3024608031C460FD40263
:100EE0003030C500C6014508CD0746080318460F37
:100EF000CE070930C500C60145084B028A110A1207
:100F0000031D892F46084C02031D892FFF30CD0099
:100F1000CE010A30C500C60145084B02031D972FBC
:100F200046084C02031D972FFF30CD00CE010B3039
:100F3000C500C60145084B02031DA52F46084C02FB
:100F4000031DA52FFF30CD00CE014B08A4004C0897
:100F5000A500A801A901A21225082906A3002808B6
:100F6000A4022908031C290FA502A31FBD2F2508D1
:100F70002906A300A31BBD2FA216A21EC22FA51BCC
:100F8000A212C42FA51BA216A21AC72FC82FD32F97
:100F9000221DD32F8316981CCA2F83124D08990047
:100FA000D10A0319D20AA1125108A4005208A500BF
:100FB0000C30A800A901A21225082906A3002808C0
:100FC000A4022908031C290FA502A31FED2F250841
:100FD0002906A300A31BED2FA216A21EF22FA51B0C
:100FE000A212F42FA51BA216A21AF72FFB2F221D67
:100FF000FA2FA116FC2F2211A11EFF2F2116211A54
:10100000A014211EA010A0148A15A01C1428303092
:10101000A800A90147082802031D1328480829022F
:10102000031D13281428A010A01C17280714A014AF
:10103000A01C27283130A800A90147082802031D59
:10104000262848082902031D26282728A010A01CAE
:101050002A280710A01406192E28A010A01C312839
:101060000715A01406183528A010A01C3828071151
:081070008A118A116F293B2847
:02400E00723FFF
:024010000000AE
:00000001FF
