:020000040000FA
:1000000083018A010000AF28090000000000000001
:10001000A701A6010310A50CA40C1030AE00031C10
:1000200017282208A6070318A70A2308A707031002
:10003000A70CA60CA50CA40CAE0B0F280800A80159
:10004000A7010310A60CA50CA40C1830AE00031CCD
:100050002F282208A70723080318230FA807031037
:10006000A80CA70CA60CA50CA40CAE0B2728080006
:1000700023082706A100A71F4228A609A709A60A48
:100080000319A70AA31F4928A209A309A20A031951
:10009000A30AA901A80103101130AE00A20DA30DFF
:1000A000AE0303196728A80DA90D2608A802031C92
:1000B000A9032708A902A91F65282608A80703186D
:1000C000A90A2708A90703104E2803144E28A11FC8
:1000D0000800A209A309A20A0319A30A0800240818
:1000E0002706A1008A110A12A71F7B28A609A709C3
:1000F000A60A0319A70AA41F8528A209A309A4090F
:10010000A20A0319A30A0319A40AA901A80103104A
:100110001930AE00A20DA30DA40DAE030319A4283F
:10012000A80DA90D2608A802031CA9032708A902E7
:10013000A91FA2282608A8070318A90A2708A907A3
:1001400003108A2803148A28A11F0800A209A30902
:10015000A409A20A0319A30A0319A40A08008B120E
:10016000831681126400F030010505388100831286
:10017000833081005F30A000213084008001840A38
:10018000A00BBE280530B300831603178801890130
:100190008312031300308500003086000030870092
:1001A00000308800003089008316DF308500FF3082
:1001B0008600FA308700FF308800FB308900831208
:1001C00003130B1920160B1D201283300B1DE6287C
:1001D00081070B116400201EF028B3030319F228D5
:1001E000B30BE5280530B30020148619F828201039
:1001F000201C1C293408A2003508A300FA30A400F2
:10020000A50108202408A2002508A3006430A60048
:10021000A7018A110A123820220895000C30970095
:100220008A110A12A0181B29A0148316F930920013
:1002300083120630920020152014061C202920105D
:100240002018A015201CA0118310A0198314831856
:100250000915831C09112018A015201CA01183105A
:10026000A019831483180714831C07102018A015E5
:10027000201CA0118310A019831483188516831CD9
:060280008512DF2842296F
:02400E00E223AB
:024010000006A8
:00000001FF
