:020000040000FA
:1000000083018A01000008280900000000000000A8
:100010006400883095001330960000308E00003068
:100020008F00313090000B3097005F30A0002130FE
:1000300084008001840AA00B192883160317880105
:1000400089018312031300308500003086000030E0
:10005000870000308800003089008316DF3085007B
:10006000FF308600FF308700FF308800FF308900B6
:1000700083120C19A0150C1DA0110C1D3D280C118C
:1000800064002014A01020182015201C20118618B0
:100090004A282011201D4D28A01420182015201CAE
:1000A0002011851A54282011201D5728A014A018AB
:1000B0002014A01C2010061C5E282010831020187D
:0E00C000831483188516831C85123828662841
:02400E00E223AB
:024010000006A8
:00000001FF
