:020000040000FA
:1000000083018A010000912809000000000000001F
:10001000003023078A001030220703188A0A820062
:100020003F3406345B344F3466346D347D340734EA
:100030007F346F3477347C3439345E3479347134BE
:10004000BF348634DB34CF34E634ED34FD348734CA
:10005000FF34EF34F734FC34B934DE34F934F1349E
:100060000034B03422344E346D34D234DA34203497
:1000700039340F34723470340C3440348034523498
:100080003F3406345B344F3466346D347D3407348A
:100090007F346F3409340D34613441344334D33404
:1000A0009F3477347C3439345E34793471343D3460
:1000B000743430341E3475343834553454345C342C
:1000C0007334673433346D3478343E341C346A34DA
:1000D00076346E345B34393464340F34233408346A
:1000E00020345F347C3458345E347B3471346F3464
:1000F000743410340E3475341834553454345C343C
:100100007334673450346D3478343E341C346A347C
:1001100076346E345B34393430340F340134003487
:1001200063346400F43095000130960000308E0096
:1001300000308F00313090000B3097005F30A0000E
:10014000213084008001840AA00BA22883160317A3
:100150008801890183120313003085000030860076
:100160000030870000308800003089008316FF309F
:100170008500FF308600FE308700FF308800F830B1
:10018000890083120C1920170C1D20130C1DC62882
:100190000C1164002014201CCF28831688018312C0
:1001A0002014201CD5288316890183122014201CBA
:1001B000DB28B301B40120140618DF2820108310B7
:1001C0002018831483180915831C0911201486181C
:1001D000EA28201083102018831483180915831C23
:1001E000091120140619F5282010831020188314F3
:1001F00083180915831C0911201486190029201061
:1002000083102018831483180915831C09112014E6
:10021000061A0B292010831020188314831809153F
:10022000831C09112014861A162920108310201807
:10023000831483180915831C09112014201C4829D4
:100240003508A2000A30A600A01322082606A10045
:100250002608A202A11F322922082606A100A11BFE
:100260003229A017A01F3729A21BA0133929A21BCE
:10027000A017A01B3C293E29B50A4429B501A018A6
:100280004329A0144429A010A01847292010492967
:10029000B50120182015201C20112014201D5129E3
:1002A0002010201CBA29B030B600B701330836023E
:1002B000031D622934083702031D62298030B30010
:1002C000B401AF293308A2003408A300A601A70196
:1002D000A01323082706A1002608A2022708031C52
:1002E000270FA302A11F7A2923082706A100A11B1B
:1002F0007A29A017A01F7F29A31BA0138129A31B64
:10030000A017A01B842988292030B300B401AF298D
:100310003308A2003408A3008130A600A701A0136F
:1003200023082706A1002608A2022708031C270F7E
:10033000A302A11FA12923082706A100A11BA1290F
:10034000A017A01FA629A31BA013A829A31BA017B1
:10035000A01BAB29AC29AF292030B300B40133086E
:10036000A2003408A3000820B600B701B609B709F7
:10037000360888002018A015201CA0118A110A1226
:10038000A01DC4290910C52909142018A015201C76
:10039000A0118310A019831483180914831C091059
:1003A00020142019D4292010201C3D2AB030B6007A
:1003B000B70133083602031DE52934083702031D4F
:1003C000E5298030B300B401322A3308A200340892
:1003D000A300A601A701A01323082706A100260851
:1003E000A2022708031C270FA302A11FFD2923082F
:1003F0002706A100A11BFD29A017A01F022AA31BED
:10040000A013042AA31BA017A01B072A0B2A203025
:10041000B300B401322A3308A2003408A3008130AB
:10042000A600A701A01323082706A1002608A20200
:100430002708031C270FA302A11F242A230827062D
:10044000A100A11B242AA017A01F292AA31BA013C7
:100450002B2AA31BA017A01B2E2A2F2A322A2030BA
:10046000B300B4013308A2003408A3000820B6008A
:10047000B701B609B7093608880020182016201CD5
:1004800020128310201A831483188914831C891066
:1004900020182016201C20128310201A8314831881
:1004A0008914831C891020148A110A12201C8B2A9B
:1004B0003808A2003908A300E830A6000330A700DE
:1004C000A01323082706A1002608A2022708031C60
:1004D000270FA302A11F722A23082706A100A11B30
:1004E000722AA017A01F772AA31BA013792AA31B87
:1004F000A017A01B7C2A802AB80A0319B90A872AE8
:10050000B801B901A01A862AA016872AA012A01A3B
:100510008A2A20108D2AB801B9018310201883146B
:0C05200083180714831C0710C128952ABB
:02400E00E223AB
:024010000006A8
:00000001FF
