:020000040000FA
:1000000083018A010000912809000000000000001F
:10001000003024078A001030230703188A0A820060
:100020003F3406345B344F3466346D347D340734EA
:100030007F346F3477347C3439345E3479347134BE
:10004000BF348634DB34CF34E634ED34FD348734CA
:10005000FF34EF34F734FC34B934DE34F934F1349E
:100060000034B03422344E346D34D234DA34203497
:1000700039340F34723470340C3440348034523498
:100080003F3406345B344F3466346D347D3407348A
:100090007F346F3409340D34613441344334D33404
:1000A0009F3477347C3439345E34793471343D3460
:1000B000743430341E3475343834553454345C342C
:1000C0007334673433346D3478343E341C346A34DA
:1000D00076346E345B34393464340F34233408346A
:1000E00020345F347C3458345E347B3471346F3464
:1000F000743410340E3475341834553454345C343C
:100100007334673450346D3478343E341C346A347C
:1001100076346E345B34393430340F340134003487
:1001200063346400E83095000330960000308E00A0
:1001300000308F00313090000B3097005F30A0000E
:10014000213084008001840AA00BA22883160317A3
:100150008801890183120313003085000030860076
:100160000030870000308800003089008316DF30BF
:100170008500FF308600F830870000308800FC30B2
:10018000890083120C1921160C1D21120C1DC62882
:100190000C1164002014201C00293408A300350829
:1001A000A400F430A7000130A800A11224082806FA
:1001B000A2002708A3022808031C280FA402A21FDC
:1001C000E72824082806A200A21BE728A116A11EE2
:1001D000EC28A41BA112EE28A41BA116A11AF12839
:1001E000F528B40A0319B50AFC28B401B501A01812
:1001F000FB28A014FC28A010A018FF28201002291A
:10020000B401B501201020182015201C20118310E6
:100210002019831483180714831C07102018201535
:10022000201C201183102019831483180715831CA8
:10023000071120182015201C201183102019831469
:1002400083188516831C851220182015201C201168
:1002500083102019831483188516831C8512201897
:100260002015201C20118310201983148318871453
:10027000831C87102014201C70293608A30037081F
:10028000A400F430A7000130A800A1122408280619
:10029000A2002708A3022808031C280FA402A21FFB
:1002A000572924082806A200A21B5729A116A11E1F
:1002B0005C29A41BA1125E29A41BA116A11A612905
:1002C0006529B60A0319B70A6C29B601B701A01946
:1002D0006B29A0156C29A011A0196F292010722973
:1002E000B601B701201020182016201C2012831000
:1002F000201A831483180814831C08102018201651
:10030000201C20128310201A831483188814831C45
:10031000881020182016201C20128310201A831405
:1003200083180815831C081120182016201C201281
:100330008310201A831483188815831C88112018B1
:100340002016201C20128310201A831483180816EC
:10035000831C081220182016201C20128310201A3B
:10036000831483188816831C881220182016201CDA
:1003700020128310201A831483180817831C081373
:1003800020182016201C20128310201A8314831892
:100390008817831C881320142018A016201CA01274
:1003A000A0128310A01A831483180914831C091047
:1003B0002018A016201CA012A0128310A01A8314CB
:1003C00083188914831C89102014201CEA29043006
:1003D000B800B9012014201CF0290530BA00BB0177
:1003E0002014201CF5298316880183122014201F55
:1003F000FA292010201C632AB030BC00BD01380847
:100400003C02031D0B2A39083D02031D0B2A8030D4
:10041000B800B901582A3808A3003908A400A70178
:10042000A801A11224082806A2002708A302280870
:10043000031C280FA402A21F232A24082806A200B6
:10044000A21B232AA116A11E282AA41BA1122A2A14
:10045000A41BA116A11A2D2A312A2030B800B901F7
:10046000582A3808A3003908A4008130A700A80141
:10047000A11224082806A2002708A3022808031CAA
:10048000280FA402A21F4A2A24082806A200A21BA1
:100490004A2AA116A11E4F2AA41BA112512AA41B4D
:1004A000A116A11A542A552A582A2030B800B90199
:1004B0003808A3003908A4000820BC00BD01BC090D
:1004C000BD093C0888002018A017201CA013831029
:1004D000A01B831483180914831C09102018A0176B
:1004E000201CA0138A110A12A01F782A0910792A49
:1004F00009142014201B7D2A2010201CE62AB0306D
:10050000BC00BD013A083C02031D8E2A3B083D0297
:10051000031D8E2A8030BA00BB01DB2A3A08A300F3
:100520003B08A400A701A801A11224082806A200E4
:100530002708A3022808031C280FA402A21FA62A2A
:1005400024082806A200A21BA62AA116A11EAB2AD7
:10055000A41BA112AD2AA41BA116A11AB02AB42A69
:100560002030BA00BB01DB2A3A08A3003B08A400F4
:100570008130A700A801A11224082806A20027089C
:10058000A3022808031C280FA402A21FCD2A2408B6
:100590002806A200A21BCD2AA116A11ED22AA41BA6
:1005A000A112D42AA41BA116A11AD72AD82ADB2A61
:1005B0002030BA00BB013A08A3003B08A400082081
:1005C000BC00BD01BC09BD093C08880020182114ED
:1005D000201C211083102118831483188914831C74
:1005E000891020182114201C21108A110A12211CA4
:1005F000FB2A8910FC2A89142014201C272B3E0872
:10060000A3000530A700A11223082706A20027088F
:10061000A302A21F112B23082706A200A21B112B45
:10062000A116A11E162BA31BA112182BA31BA116EA
:10063000A11A1B2B1D2BBE0A232BBE01A118222B96
:10064000A114232BA110A118262B2010282BBE01AA
:1006500020182017201C2013201421112018A11568
:10066000201CA1118618352BA111A11D382B211595
:100670002018A115201CA111851A3F2BA111A11D25
:10068000422B211521192014211D2010061C492B55
:10069000201083102018831483188516831C85125C
:0406A000C128512BF1
:02400E00E223AB
:024010000006A8
:00000001FF
